:020000040800F2
:1000000078060020E5060008C9060008CB060008AF
:10001000CF060008D3060008D7060008000000003D
:10002000000000000000000000000000DB060008E7
:10003000DD06000800000000F7060008E1060008E1
:10004000FB060008FB060008FB060008FB0600088C
:10005000FB060008FB060008FB060008FB0600087C
:10006000FB060008FB060008FB060008FB0600086C
:10007000FB060008FB060008FB060008FB0600085C
:10008000FB060008FB060008FB060008FB0600084C
:10009000FB060008FB060008FB060008FB0600083C
:1000A000FB060008FB060008FB060008FB0600082C
:1000B000112A0008372D0008FB060008FB0600087F
:1000C000FB060008FB060008FB060008FB0600080C
:1000D000FB0600087F280008FB060008FB06000856
:1000E000FB060008FB060008FB060008DFF80CD042
:1000F00003F08AFB00480047A5320008780600207C
:1001000030B5044600250B4604E0E05C284485B287
:10011000581C83B29342F8DB501A95FBF0F0C0B242
:1001200030BDF0B50D461346294610E04E1CB2B264
:1001300009E0465C875CBE4203DD445C865C465455
:100140008454561CB2B29A42F3DB4E1CB1B25E1E0E
:100150008E42EBDCF0BD10B5B0F57A7F1FD2642281
:10016000B0FBF2F230320A706422B0FBF2F302FB11
:1001700013020A23B2FBF3F230324A702E228A7045
:100180006422B0FBF2F302FB13020A23B2FBF3F486
:1001900003FB14223032CA7000220A7108E03922AF
:1001A0000A704A702E228A703922CA7000220A719F
:1001B00010BD64280ED20A22B0FBF2F230320A706F
:1001C0000A22B0FBF2F302FB130230324A70002223
:1001D0008A7004E039220A704A7000228A707047DF
:1001E00010B5B0F57A7F1DD26422B0FBF2F2303246
:1001F0000A706422B0FBF2F302FB13020A23B2FB83
:10020000F3F230324A706422B0FBF2F302FB1302C5
:100210000A23B2FBF3F403FB142230328A7000226B
:10022000CA7005E039220A704A708A700022CA70CA
:1002300010BD10B542F21072904235D24FF47A726E
:10024000B0FBF2F230320A704FF47A72B0FBF2F384
:1002500002FB13026423B2FBF3F230324A704FF414
:100260007A72B0FBF2F302FB13026423B2FBF3F4E5
:1002700003FB14220A23B2FBF3F230328A704FF4EC
:100280007A72B0FBF2F302FB13026423B2FBF3F4C5
:1002900003FB14220A23B2FBF3F403FB14223032D3
:1002A000CA7000220A7106E039220A704A708A7008
:1002B000CA7000220A7110BD10B5854A904255D20D
:1002C00042F21072B0FBF2F230320A702E224A7003
:1002D00042F21072B0FBF2F302FB13024FF47A7396
:1002E000B2FBF3F230328A7042F21072B0FBF2F3DA
:1002F00002FB13024FF47A73B2FBF3F403FB1422F4
:100300006423B2FBF3F23032CA7042F21072B0FBD7
:10031000F2F302FB13024FF47A73B2FBF3F403FB24
:1003200014226423B2FBF3F403FB14220A23B2FB6E
:10033000F3F230320A7142F21072B0FBF2F302FBB8
:1003400013024FF47A73B2FBF3F403FB1422642319
:10035000B2FBF3F403FB14220A23B2FBF3F403FB16
:10036000142230324A7100228A710AE039220A705E
:100370002E224A7039228A70CA700A714A7100228C
:100380008A7110BD06E04FF47A7100E0491E002921
:10039000FCD1401E0028F6D17047002105E00A215B
:1003A00000BF0A1EA1F10101FBD1021EA0F1010054
:1003B000F5D17047002106E042F6E06100BF0A1E59
:1003C000A1F10101FBD1021EA0F10100F4D170479F
:1003D00010B56FF0040000F0E2F93E4800683E49B5
:1003E000B0FBF1F03D4908700846007800EB400191
:1003F000C1EBC0104FF6FF7101EAC0003849088018
:1004000010BD0146354A12784A434FF0E0235A6145
:1004100000229A611A46126942F001021A6100BF75
:100420004FF0E022106900F001021AB100F48032AE
:10043000002AF5D04FF0E022126922F001024FF0BD
:10044000E0231A6100229A6170470146244A12880B
:100450004A434FF0E0235A6100229A611A4612691A
:1004600042F001021A6100BF4FF0E022106900F073
:1004700001021AB100F48032002AF5D04FF0E022D8
:10048000126922F001024FF0E0231A6100229A6102
:1004900070472DE9F0470746884614464FF000099B
:1004A0000025104E002C00DC00244FF0000909E06C
:1004B0002A4633463846414603F02EF805460E4696
:1004C00009F10109A145F3D328463146BDE8F0877B
:1004D000A08601000400002000127A000000002025
:1004E000020000200000F03F0CB5002001900090B9
:1004F0006C48006840F480306A49086000BF694871
:10050000006800F4003000900198401C01900098B1
:1005100018B90198B0F5A06FF1D16248006800F4F5
:10052000003010B10120009001E000200090009800
:10053000012843D15C48006840F010005A49086027
:100540000846006820F0030008600846006840F094
:1005500002000860534840685249486008464068B5
:1005600048600846406840F480604860084640683B
:1005700020F47C1048600846406840F4E810486069
:100580000846006840F08070086000BF4548006879
:1005900000F000700028F9D04248406820F00300C5
:1005A000404948600846406840F00200486000BF8B
:1005B0003C48406800F00C000828F9D10CBD10B58B
:1005C000FFF792FF10BD10B504463648006840F0B2
:1005D0000100344908600846406834490840314900
:1005E000486008460068324908402E4908600846BD
:1005F000006820F4802008600846406820F4FE006F
:1006000048604FF41F008860FFF7D9FF44F0006096
:100610002849086010BD10B5002100200022214BA0
:100620005B6803F00C0121B1042906D0082928D108
:1006300007E0214B214C236027E01F4B1F4C236018
:1006400023E0184B5B6803F47010164B5B6803F4EF
:100650008032022303EB904022B9194B4343174CDD
:1006600023600DE00F4B5B6803F4003323B1144BA0
:100670004343124C236003E00F4B43430F4C236072
:1006800003E00D4B0D4C236000BF00BF054B5B68C2
:10069000C3F303130B4CE15C084B1B68CB40074CC6
:1006A000236010BD00100240002002400000FFF84F
:1006B000FFFFF6FE08ED00E000127A0004000020C3
:1006C00000093D0008000020704700BFFEE700BFA2
:1006D000FEE700BFFEE700BFFEE7704770477047C8
:1006E0007047000005480047FEE7FEE7FEE7FEE72B
:1006F000FEE7FEE7FEE7FEE7FEE7FEE7ED000008A7
:1007000031490143314A1160704770B5002100231F
:100710000F22C47804B32D4C246804F4E064C4F5BB
:10072000E064210AC1F10403CA40447804FA03F1E9
:100730008478144021430901254C0678A15504789A
:1007400004F01F050124AC4005786D11AD0005F1E2
:10075000E025C5F8004109E0047804F01F050124F4
:10076000AC401C4D0678761145F8264070BD1A4AFB
:100770000A400243154B1B1F1A60704739B1134AD8
:10078000121D12680243114B1B1D1A6006E00F4A2E
:10079000121D126882430D4B1B1D1A6070470428FE
:1007A00008D14FF0E021096941F004014FF0E02247
:1007B000116107E04FF0E021096921F004014FF0D9
:1007C000E0221161704700000000FA050CED00E026
:1007D00000E400E080E100E080FFFF1F10B5044668
:1007E000FA48844208D10121401500F059FD00214A
:1007F000601500F055FD17E0F548844208D101214D
:10080000001500F04DFD0021201500F049FD0BE022
:10081000F048844208D10121C80300F041FD0021C5
:100820004FF4004000F03CFD10BD30B50246002002
:1008300000235068E84C20400D790C6844EA0524F8
:10084000204350609068E54C2040D1E902542C438D
:100850004D7944EA450420439060D06A20F470004A
:100860000C7C641EE4B2234340EA0350D06230BDE6
:1008700000210160017141718160C1600121017439
:10088000704721B1826842F00102826003E0826811
:1008900022F001028260704721B1826842F48072C6
:1008A000826003E0826822F480728260704710B533
:1008B0000023CBB21AB144681C43446002E0446890
:1008C0009C43446010BD816841F00801816070471D
:1008D000014600208A6802F008020AB1012000E007
:1008E00000207047816841F0040181607047014633
:1008F00000208A6802F004020AB1012000E0002012
:10090000704721B1826842F4A002826003E08268ED
:1009100022F4A00282607047014600208A6802F437
:1009200080020AB1012000E00020704710B50A469D
:1009300000210023416821F46041531E41EA433104
:10094000416010BD21B1426842F40062426003E0A0
:10095000426822F4006242607047F0B504460D46DA
:1009600000200021092D11DDE068A5F10A0606EB43
:100970004607072606FA07F18843A5F10A0606EBA3
:10098000460603FA06F10843E0600CE0206905EB37
:100990004507072606FA07F1884305EB450603FAE3
:1009A00006F108432061072A0FDA606B561E06EB3A
:1009B00086071F2606FA07F18843561E06EB8606B1
:1009C00005FA06F10843606322E00D2A0FDA206B76
:1009D000D61F06EB86071F2606FA07F18843D61FA7
:1009E00006EB860605FA06F10843206310E0E06A8C
:1009F000A2F10D0606EB86071F2606FA07F18843CB
:100A0000A2F10D0606EB860605FA06F10843E06240
:100A1000F0BD21B1826842F48012826003E08268F6
:100A200022F48012826070470146C86C80B2704721
:100A300066484C300068704721B1426842F48062D9
:100A4000426003E0426822F480624260704721B154
:100A5000426842F48052426003E0426822F48052CD
:100A6000426070470A460021816821F4E041114349
:100A70008160704721B1826842F40042826003E0E5
:100A8000826822F400428260704721B1826842F499
:100A90000212826003E0826822F4021282607047D0
:100AA000014600208A6802F400120AB1012000E029
:100AB00000207047F0B504461546002000220026AD
:100AC000092911DDE068A1F10A0707EB470C0727A8
:100AD00007FA0CF29043A1F10A0707EB470703FA64
:100AE00007F21043E0600CE0206901EB410C07279E
:100AF00007FA0CF2904301EB410703FA07F21043A7
:100B00002061A06BC0F30156EF1C06F1010CA7EBAE
:100B10000C0707EB870C1F2707FA0CF29043EF1C1A
:100B200006F1010CA7EB0C0707EB870701FA07F2A8
:100B30001043A063F0BD10B50A4600210023816B6D
:100B400021F44011531E41EA0351816310BD08B5E1
:100B5000002300930090009B0B440093009B1A60BD
:100B600008BD08B5024600200090009201F128005F
:100B7000009B184400900098006880B208BD0A46A7
:100B800000214168164B1940114341607047416292
:100B9000826270470A460021416821F01F0111431B
:100BA0004160704740B109490831096841F40001CA
:100BB000064A0832116007E004490831096821F447
:100BC0000001024A08321160704700000024014011
:100BD00000280140003C0140FFFEF0FFFDF7F1FF5F
:100BE000FFFD3FFF0246002013680B400BB10120C0
:100BF00000E000207047CA430260704770B50246AB
:100C00000020002300240B125568CEB205EA06042A
:100C100015681D4015B10CB1012000E0002070BD29
:100C200000220A12D34303607047000010B5044647
:100C3000CE48844208D10121042000F031FB00217C
:100C4000042000F02DFB46E0C948844208D1012170
:100C5000082000F025FB0021082000F021FB3AE0ED
:100C6000C448844208D10121102000F019FB002162
:100C7000102000F015FB2EE0BF48844208D101216E
:100C8000202000F00DFB0021202000F009FB22E0D5
:100C9000BA48844208D10121402000F001FB002124
:100CA000402000F0FDFA16E0B548844208D1012149
:100CB000802000F0F5FA0021802000F0F1FA0AE02F
:100CC000B048844207D10121801500F0E9FA0021E3
:100CD000A01500F0E5FA10BD10B50121084600F09E
:100CE000DFFA0021012000F0DBFA10BD2DE9F04110
:100CF000024600250026002000230024002791F84A
:100D000003C00CF00F0591F803C00CF0100CBCF1FF
:100D1000000F03D091F802C04CEA050591F800C01D
:100D2000BCF1000F31D0146800202BE04FF0010C13
:100D30000CFA00F3B1F800C00CEA03069E4220D181
:100D400083004FF00F0C0CFA03F7BC4305FA03FCC9
:100D50004CEA040491F803C0BCF1280F06D14FF00F
:100D6000010C0CFA00FCC2F814C00AE091F803C0B0
:100D7000BCF1480F05D14FF0010C0CFA00FCC2F891
:100D800010C0401C0828D1D31460B1F800C0BCF1D9
:100D9000FF0F34DD546800202EE000F1080C4FF006
:100DA000010808FA0CF3B1F800C00CEA03069E42F1
:100DB00021D183004FF00F0C0CFA03F7BC4305FA66
:100DC00003FC4CEA040491F803C0BCF1280F05D1E0
:100DD00000F1080C08FA0CF8C2F8148091F803C06E
:100DE000BCF1480F07D100F1080C4FF0010808FAD8
:100DF0000CF8C2F81080401C0828CED35460BDE81F
:100E0000F0814FF6FF710180022181700421C170D1
:100E100070470246002093680B400BB1012000E0B0
:100E2000002070470146886880B270470246002063
:100E3000D3680B400BB1012000E000207047014651
:100E4000C86880B2704701617047416170470AB15C
:100E5000016100E0416170470AB1016100E0416158
:100E60007047C16070474FF480320A4382618161EC
:100E7000826182698269704702460020424B18688D
:100E80004FF68073184040EA021008433E4B18604A
:100E900070473E49C8617047F0B50A4600230024F8
:100EA0000021002500F00046B6F1004F02D1364E79
:100EB000F16901E0344E7168C0F3034583B200F478
:100EC0004016B6F5401F08D121F070612E4E7668AD
:100ED00026F070662C4F7E6012E000F48016B6F5A6
:100EE000801F06D1032606FA05F4A14341F0706184
:100EF00006E0460D360103FA06F6B14341F0706193
:100F000022B1460D360103FA06F6314300F00046E1
:100F1000B6F1004F02D11C4EF16101E01A4E716032
:100F2000F0BD30B500228B071C0F0F2303FA04F22B
:100F3000154B08338C1053F824309343124C08346B
:100F40008D1044F8253023468C1053F824308C073C
:100F5000240F00FA04F423430B4C08348D1044F89A
:100F6000253030BD0949DC31086070470008014078
:100F7000000C014000100140001401400018014025
:100F8000001C014000200140000001400000204200
:100F9000DF48006840F00100DD490860084640680D
:100FA000DC490840DA49486008460068DA490840E8
:100FB000D74908600846006820F480200860084689
:100FC000406820F4FE0048604FF41F0088607047BE
:100FD000CF49096821F48031CD4A11601146096872
:100FE00021F480211160B0F5803F03D0B0F5802F4F
:100FF0000ED106E0C649096841F48031C44A116047
:1010000007E0C349096841F4A021C14A116000E02A
:1010100000BF00BF704710B501460022002300202A
:101020004A11012A02D1BA4C236806E0022A02D1F1
:10103000B74C236A01E0B64C636A01F01F02012439
:1010400094401C400CB1012000E0002010BD38B5D8
:10105000002000900024002500BF3120FFF7DBFFB7
:1010600005460098401C00900098B0F5A06F01D094
:10107000002DF2D03120FFF7CEFF08B1012400E0AF
:101080000024204638BD01460020A14A106820F007
:10109000F80040EAC10010607047A049086070473E
:1010A000024600209A4B586820F47C1042EA010363
:1010B0001843974B58607047984908667047014637
:1010C0000020934A506820F00300084350607047A6
:1010D0008F48406800F00C007047014600208C4AA1
:1010E000506820F0F000084350607047014600202F
:1010F000874A506820F4E06008435060704701461A
:101100000020834A506820F4605040EAC1005060DB
:10111000704729B17E4A527A02437D4B5A7204E0ED
:101120007B4A527A82437A4B5A7270477B49D83154
:101130000860704701460020754A506820F440401E
:101140000843506070470021714A20321170704A84
:1011500082F82010012802D004280AD104E00121DD
:101160006B4A2032117005E00521694A2032117066
:1011700000E000BF00BF70476949086070476449DC
:10118000096A0143624A116270476549443908603F
:10119000704730B500210022002400235C4D6D68AB
:1011A00005F00C0121B1042905D0082923D105E05F
:1011B0005C4D056022E05B4D05601FE0544D6D689D
:1011C00005F47012524D6D6805F48034022505EB6C
:1011D00092421CB9544D554305600BE04C4D6D686F
:1011E00005F400351DB1504D5543056002E04D4DED
:1011F0005543056002E04B4D056000BF00BF444D04
:101200006D6805F0F0010909484D6B5C0568DD402B
:1012100045603F4D6D6805F4E061090A434D6B5C24
:101220004568DD4085603A4D6D6805F46051C90A36
:101230003E4D6B5C4568DD40C560354D6D6805F41D
:101240004041890B3A4D6B5CC568B5FBF3F5056110
:1012500030BD29B12E4A526902432D4B5A6104E038
:101260002B4A526982432A4B5A61704729B1284A56
:1012700092690243264B9A6104E0254A92698243AF
:10128000234B9A61704729B1214AD2690243204B0E
:10129000DA6104E01E4AD26982431D4BDA6170476D
:1012A00029B11B4AD2680243194BDA6004E0184A9C
:1012B000D2688243164BDA60704729B1144A12692A
:1012C0000243134B1A6104E0114A12698243104B26
:1012D0001A61704712494039086070470F49C86465
:1012E00070470B49C87170470948406A40F08070E8
:1012F00007494862704701460020054A92680A4043
:101300000AB1012000E0002070470149887270474F
:10131000001002400000FFF8FFFFF6FE000042420E
:101320008004424200127A0000093D0018000020AB
:101330002800002010B50446FE48844208D101214F
:10134000C014FFF7ADFF0021E014FFF7A9FFC4E0D0
:10135000B4F1804F08D101210846FFF7AEFF00210C
:101360000120FFF7AAFFB8E0F348844208D1012129
:101370000220FFF7A2FF00210220FFF79EFFACE052
:10138000EE48844208D101210420FFF796FF002196
:101390000420FFF792FFA0E0E948844208D1012130
:1013A0000820FFF78AFF00210820FFF786FF94E05E
:1013B000E448844208D101211020FFF77EFF00217C
:1013C0001020FFF77AFF88E0DF48844208D101212E
:1013D0002020FFF772FF00212020FFF76EFF7CE046
:1013E000DA48844208D101214014FFF759FF002157
:1013F0006014FFF755FF70E0D548844209D1012100
:10140000C804FFF74DFF00214FF40020FFF748FF0D
:1014100063E0D048844209D101210805FFF740FF6D
:1014200000214FF48010FFF73BFF56E0CA4884428A
:1014300009D101214805FFF733FF00214FF40010C7
:10144000FFF72EFF49E0C548844208D10121402022
:10145000FFF733FF00214020FFF72FFF3DE0C0489A
:10146000844208D101218020FFF727FF002180203E
:10147000FFF723FF31E0BB48844208D101218015EA
:10148000FFF71BFF0021A015FFF717FF25E0B64867
:10149000844209D101210804FFF702FF00214FF423
:1014A0008030FFF7FDFE18E0B048844209D10121E9
:1014B0004804FFF7F5FE00214FF40030FFF7F0FE7F
:1014C0000BE0AB48844208D101218804FFF7E8FE15
:1014D00000214FF48020FFF7E3FE10BD00220288B8
:1014E000944B98420ED0994B98420BD0B0F1804F5C
:1014F00008D0914B984205D0904B984202D0904B27
:10150000984204D14FF68F731A404B881A438D4B83
:10151000984207D08C4B984204D04FF6FF431A40B4
:10152000CB881A4302808B8883850B880385814B87
:1015300098420BD0854B984208D08B4B984205D0EF
:101540008A4B984202D08A4B984201D10B7A03868B
:1015500001238382704770B5002400220023058C8C
:101560004FF6FE7635400584028C8388048B4FF657
:101570008F752C40B51E2C400D882C43751E2A40BB
:101580000D892A434D882A436A4DA8420BD06F4DDE
:10159000A84208D0744DA84205D0744DA84202D08C
:1015A000734DA84213D14FF6F7752A404D892A434F
:1015B0004FF6FB752A408D882A434FF6FF652B4076
:1015C0004FF6FF552B408D892B43CD892B438380CC
:1015D0000483CD888586028470BD70B50024002206
:1015E0000023058C4FF6EF7635400584028C838806
:1015F000048B48F6FF752C404FF6FF452C400D88B4
:101600004FF6FF7606EA05252C434FF6DF752A4094
:101610000D8906EA05152A434D8806EA05152A4371
:10162000444DA84202D0494DA8421DD14FF67F75C6
:101630002A404D894FF6FF7606EA05152A434FF6F4
:10164000BF752A408D8806EA05152A434FF6FF35F7
:101650002B404FF2FF752B408D8906EA85052B4301
:10166000CD8906EA85052B4383800483CD880587D1
:10167000028470BD70B5002400220023058C4FF653
:10168000FF6635400584028C8388848B4FF68F7506
:101690002C404FF6FC752C400D882C434FF6FF551F
:1016A0002A400D894FF6FF7606EA05252A434D8824
:1016B00006EA05252A431F4DA84202D0234DA84221
:1016C0001DD14FF2FF752A404D894FF6FF7606EA8D
:1016D00005252A434FF6FF352A408D8806EA052561
:1016E0002A434EF6FF752B404DF6FF752B408D8932
:1016F00006EA05152B43CD8906EA05152B438380A1
:101700008483CD888587028470BD70B50022002354
:101710000024058C4EF6FF7635400584038C8488C2
:10172000828B48F6FF752A404FF6FF452A400D8808
:1017300020E00000002C01400004004000080040B0
:10174000000C004000100040001400400034014034
:10175000004C01400050014000540140001800407E
:10176000001C0040002000400040014000440140B7
:10177000004801404FF6FF7606EA05252A434DF65C
:10178000FF752B400D8906EA05352B434D8806EA87
:1017900005352B43FA4DA84202D0FA4DA84208D194
:1017A0004BF6FF752C408D894FF6FF7606EA8515BE
:1017B0002C4384808283CD88A0F84050038470BD80
:1017C000828B4FF2FF331A408283828B4FF6FF7376
:1017D00003EA01231A4382837047F0B50C4615468D
:1017E000002200210026078C4EF6FF7C07EA0C073A
:1017F0000784828B018C4FF6FF7707EA043640F6A8
:10180000FF473A404FF6FF7707EA05273A434FF67E
:10181000FF7707EA03373A43D94FB8420ED0D94F82
:10182000B8420BD0B0F1804F08D0D74FB84205D0A6
:10183000D64FB84202D0D64FB84206D14DF6FF7708
:10184000394046F48057394305E047F6FF573940A1
:1018500044F48057394382830184F0BD828B4FF674
:10186000F3731A408283828B0A4382837047F0B5F8
:101870000C461546002200210026078C4FF6FF6C0F
:1018800007EA0C070784828B018C4FF6FF7707EA83
:1018900004264FF60C773A404FF6FF7707EA031716
:1018A0002F433A43B64FB8420ED0B64FB8420BD092
:1018B000B0F1804F08D0B44FB84205D0B34FB84212
:1018C00002D0B34FB84206D14FF6FF57394046F425
:1018D0008077394305E04FF2FF57394044F4807771
:1018E000394382830184F0BD028B4FF2FF331A40EB
:1018F0000283028B4FF6FF7303EA01231A4302832C
:101900007047F0B50C461546002200210026078CD2
:101910004FF6EF7C07EA0C070784028B018C4FF629
:10192000FF7707EA041640F6FF473A404FF6FF7785
:1019300007EA03373A434FF6FF7707EA05273A43AA
:101940008F4FB8420ED08F4FB8420BD0B0F1804FBE
:1019500008D08D4FB84205D08C4FB84202D08C4F82
:10196000B84206D14FF6DF77394046F010073943C9
:1019700005E04FF65F77394044F0100739430283A2
:101980000184F0BD028B4FF6F3731A400283028B81
:101990000A4302837047F0B50C4615460022002129
:1019A000068C4FF6FE773E400684028B018C4FF684
:1019B0000C7632407E1C06EA03162E433243704EEC
:1019C000B0420ED06F4EB0420BD0B0F1804F08D075
:1019D0006D4EB04205D06D4EB04202D06C4EB0425A
:1019E00006D14FF6FD76314044F00106314305E063
:1019F0004FF6F576314044F001063143028301840D
:101A0000F0BD70B505460C465D4885420ED05D4878
:101A100085420BD0B5F1804F08D05B48854205D098
:101A20005A48854202D05A48854200D100E000BFA2
:101A3000208850B92389A28861882846FFF7ABFF28
:101A4000E1882846FFF79EFF25E0208804280AD178
:101A50002389A28861882846FFF753FFE18828463A
:101A6000FFF742FF17E0208808280AD12389A288BF
:101A700061882846FFF7FBFEE1882846FFF7EEFE67
:101A800009E02389A28861882846FFF7A6FEE1883D
:101A90002846FFF795FE70BD2DE9F04105460C463E
:101AA00000260127608808B9022600E00026A088E9
:101AB000012801D1022700E001272088A0B923894D
:101AC000A28861882846FFF766FFE1882846FFF76D
:101AD00059FF23893A4631462846FFF712FFE1882D
:101AE0002846FFF701FF13E02389A2886188284672
:101AF000FFF707FFE1882846FFF7F6FE23893A46FD
:101B000031462846FFF747FFE1882846FFF73AFFAE
:101B1000BDE8F0810A884B881A438B881A43CB882A
:101B20001A430B891A434B891A438B891A43A0F82D
:101B3000442070474FF6FF71818000210180C180F1
:101B40004180017270470021018041808180C18005
:101B5000018141818181C1817047002101804180E3
:101B6000012181800021C180018170470021018015
:101B700041808180C1800181418181817047000065
:101B8000002C0140003401400004004000080040E7
:101B9000000C004021B1028842F00102028004E002
:101BA00002884FF6FE731A400280704731B1B0F8D8
:101BB000442042F40042A0F8442005E0B0F844205C
:101BC000C2F30E02A0F8442070471AB183890B4378
:101BD000838102E083898B438381704781827047D0
:101BE00041EA0203A0F8483070471AB183890B43D9
:101BF000838102E083898B438381704701894FF69B
:101C0000F8721140018170470A46002101894FF6A0
:101C10008F73194011430181704730B504460D465A
:101C200029462046FFF7F0FF208940F00700208179
:101C300030BD2DE9F04104460D4616461F46602D85
:101C400006D13B46012231462046FFF75AFE05E009
:101C50003B46012231462046FFF79DFE294620469D
:101C6000FFF7D2FF208940F007002081BDE8F08116
:101C700030B50C4600210189C9B24FF6FF7505EA5F
:101C80000325154325432943018130BD2DE9F0414A
:101C900005460E4617469846002443463A463146C6
:101CA0002846FFF7E5FF2C894FF6F870044044F012
:101CB00007044FF68F70044044F070042C81BDE897
:101CC000F081F0B504460D4616461F463B463246A7
:101CD00029462046FFF7CCFF208940F48040208130
:101CE000F0BD0185828270470A46002101884FF6C7
:101CF0008F731940114301807047F0B50C461546AB
:101D00001E460021002200230189028B038C4FF61E
:101D1000F877394021434FF6FC473A4040F201172B
:101D20003A434FF6DD773B404FF6FF7707EA061759
:101D30002F433B43018102830384F0BD0A46002107
:101D4000018B4FF68F7319401143018370470A4688
:101D50000021018B48F6FF7319404FF6FF7303EA29
:101D600002231943018370470A460021818B4FF6F5
:101D70008F7319401143818370470A460021818B7C
:101D800048F6FF7319404FF6FF7303EA0223194325
:101D90008183704721B1028842F08002028004E012
:101DA00002884FF67F731A400280704721B1828803
:101DB00042F00402828004E082884FF6FB731A40EE
:101DC0008280704721B1828842F00802828004E05C
:101DD00082884FF6F7731A408280704721B182885B
:101DE00042F00102828004E082884FF6FE731A40BE
:101DF000828070470A460021018B4FF6F773194025
:101E00001143018370470A460021018B4FF2FF7393
:101E100019404FF6FF7303EA022319430183704709
:101E20000A460021818B4FF6F773194011438183D5
:101E300070470A460021818B4FF2FF7319404FF61D
:101E4000FF7303EA02231943818370470A46002186
:101E5000018B4FF6FB7319401143018370470A460B
:101E60000021018B4FF6FF3319404FF6FF7303EA51
:101E700002231943018370470A460021818B4FF6E4
:101E8000FB7319401143818370470A460021818BFF
:101E90004FF6FF3319404FF6FF7303EA022319434D
:101EA000818370470A460021018B4FF67F731940EA
:101EB0001143018370470A460021018BC1F30E01D3
:101EC0004FF6FF7303EA02231943018370470A4662
:101ED0000021818B4FF67F73194011438183704736
:101EE0000A460021818BC1F30E014FF6FF7303EA0E
:101EF00002231943818370470A460021018C4FF663
:101F0000FD7319401143018470470A460021018C7A
:101F10004FF6F77319401143018470470A460021B8
:101F2000018C4FF6DF7319404FF6FF7303EA02137B
:101F30001943018470470A460021018C4FF67F73D4
:101F400019404FF6FF7303EA0213194301847047E7
:101F50000A460021018C4FF6FF5319404FF6FF73DC
:101F600003EA02231943018470470A460021018CC9
:101F70004FF2FF7319404FF6FF7303EA0223194330
:101F8000018470470A460021018C4DF6FF73194009
:101F90004FF6FF7303EA023319430184704730B5EB
:101FA000002301248C40A3B2048C9C430484048C41
:101FB00002FA01F5ADB22C43048430BD30B50023E4
:101FC00004248C40A3B2048C9C430484048C02FA45
:101FD00001F5ADB22C43048430BD70B5034600203A
:101FE00000241846183001258D40ACB21D8CA54345
:101FF0001D8409B1082909D100EB6100056825F0AD
:10200000700505600568154305600EE00D1FC5F3FA
:102010004E052844056825F4E045056005684FF63F
:10202000FF7606EA02263543056070BD21B10288BD
:1020300042F00202028004E002884FF6FD731A406B
:102040000280704721B1028842F00402028004E05D
:1020500002884FF6FB731A400280704721B18288D4
:1020600042F08002828004E082884FF67F731A403B
:102070008280704702884FF6F7731A400280028808
:102080000A430280704782884FF68F731A4082801D
:1020900082880A438280704702894FF6F8731A409B
:1020A000028102890A430281704702894FF67F73D9
:1020B0001A40028102890A43028170478184704775
:1020C0008185704781867047018770478187704797
:1020D000A0F84010704702884FF6FF431A40028074
:1020E00002880A43028070470146888E7047014685
:1020F000088F70470146888F70470146B1F840004D
:1021000070470146888C70470146088D704702462B
:102110000020138A0B400BB1012000E00020704723
:10212000CA430282704730B50246002000230024D3
:10213000158A05EA0103958905EA010413B10CB17A
:10214000012000E0002030BDCA4302827047000039
:1021500010B50446FB48844209D101218803FFF7EA
:102160009FF800214FF48040FFF79AF832E0F648DC
:10217000844209D101214804FFF79FF800214FF460
:102180000030FFF79AF825E0F048844209D1012198
:102190008804FFF792F800214FF48020FFF78DF8B4
:1021A00018E0EB48844209D10121C804FFF785F803
:1021B00000214FF40020FFF780F80BE0E54884424F
:1021C00008D101210805FFF778F800214FF48010AD
:1021D000FFF773F810BD2DE9F04786B005460E46AF
:1021E0000024A24600BFA1460027B08900B100BF6D
:1021F0002F462C8A4CF6FF700440F08804432C8252
:10220000AC894EF6F3100440B088318908437189D7
:1022100008430443AC81AC8A4FF6FF400440B089C8
:102220000443AC8201A8FEF7B4FFC648874202D13E
:10223000DDF810A001E0DDF80CA0A88900F4004052
:1022400040B10AEBCA0000EB0A1031684900B0FB4C
:10225000F1F807E00AEBCA0000EB0A1031688900C8
:10226000B0FBF1F86420B8FBF0F004012009642110
:1022700001FB1089A88900F4004040B1322000EB36
:10228000C900B0FBF1F000F00700044308E0322081
:1022900000EB09106421B0FBF1F000F00F000443E3
:1022A0002C8106B0BDE8F0874FF416510160002183
:1022B0008180C18001810C21418100218181704791
:1022C00010B502460020108A4FF2FF0318400B8819
:1022D0004C8823438C882343CC88234318431082A3
:1022E00010BD0021018041808180C180704721B1F3
:1022F000828942F40052828104E082894DF6FF73A4
:102300001A4082817047F0B503460024002600255C
:10231000002040F66A17B94200D100BF1846C1F349
:10232000421401F01F06012707FA06F5012C01D11E
:102330000C3004E0022C01D1103000E014301AB14E
:1023400007682F43076002E00768AF430760F0BDEE
:102350001AB1838A0B43838202E0838A8B43838290
:102360007047028A4FF6F0731A400282028A0A43CB
:102370000282704782894FF2FF731A4082818289FC
:102380000A438281704721B1828942F00202828130
:1023900004E082894FF6FD731A4082817047028AF9
:1023A0004FF6DF731A400282028A0A4302827047A4
:1023B00021B1028A42F48042028204E0028A4BF692
:1023C000FF731A4002827047C1F30802828070478F
:1023D00001468888C0F308007047818941F00101F7
:1023E00081817047028BD2B20283028B42EA0122C2
:1023F00002837047028B02F47F420283028B0A43FE
:102400000283704721B1828A42F02002828204E076
:10241000828A4FF6DF731A408282704721B1828A26
:1024200042F01002828204E0828A4FF6EF731A4073
:102430008282704721B1828A42F00802828204E0DF
:10244000828A4FF6F7731A408282704721B18289DF
:1024500042F40042828103E08289C2F30E0282814B
:10246000704721B1828A42F40062828204E0828A4B
:102470004FF2FF731A4082827047828A4FF6FB73D5
:102480001A408282828A0A438282704721B1828AFC
:1024900042F00202828204E0828A4FF6FD731A4003
:1024A0008282704702460020B1F5007F00D100BF54
:1024B00013880B400BB1012000E00020704701F4AD
:1024C0000072B2F5007F00D100BFCA43028070479E
:1024D00070B50246002400230025002040F66A164D
:1024E000B14200D100BFC1F3421501F01F03012624
:1024F00006FA03F3012D02D19689334006E0022D3E
:1025000002D1168A334001E0968A33400C1201262C
:1025100006FA04F41688344013B10CB1012000E02F
:10252000002070BD10B50022002340F66A14A142BD
:1025300000D100BF0A1201249440A3B2DC430480FE
:1025400010BD000000380140004400400048004039
:10255000004C00400050004008B501211020FEF75B
:1025600085FE4FF40050ADF8000001208DF8020008
:1025700010208DF8030069460448FEF7B7FB0122DE
:1025800051030248FEF763FC08BD00000010014043
:1025900000B587B001210420FEF768FE00208DF809
:1025A000070003208DF806008020ADF8040001A983
:1025B0002948FEF79BFB01214802FEF757FE4FF426
:1025C0004040FEF7B7FD002002908DF80C008DF81A
:1025D0000D004FF4602004900020059001208DF83C
:1025E000180002A91D48FEF720F94FF4E0411B48EE
:1025F000FEF738FA01211948FEF79DFA0723012258
:1026000019461648FEF756FA002214211348FEF721
:102610009EFA01211148FEF734F907B000BD70B5EC
:102620000025002400BF10E001210C48FEF769F9E5
:1026300000BF02210948FEF7D5FA0028F9D0074863
:10264000FEF7F2F90444681C85B20A2DECDB0A207F
:10265000B4FBF0F080B270BD0008014000240140DE
:1026600010B586B00446012144F20400FEF7FEFDD9
:102670004FF40070ADF8140003208DF816001820F8
:102680008DF8170005A99F48FEF730FB4FF48060D6
:10269000ADF8140004208DF8170005A99948FEF73D
:1026A00025FB25208DF8000001208DF801008DF814
:1026B00002008DF803006846FEF727F80194002019
:1026C000ADF80800ADF80A00ADF80C00ADF8100048
:1026D0000C20ADF80E0001A98B48FFF77CFD01220C
:1026E00040F225518848FFF70EFE01218648FFF78A
:1026F000FEFD06B010BD70B504460D460FE040214A
:102700008148FFF7DCFE21787F48FFF75DFE00BFC0
:1027100040217D48FFF7C6FE0028F9D0641C2078D0
:102720000028ECD1012D1DD140217748FFF7C7FECD
:102730000D217548FFF748FE00BF40217248FFF7A2
:10274000B1FE0028F9D040216F48FFF7B8FE0A21FA
:102750006D48FFF739FE00BF40216B48FFF7A2FE2E
:102760000028F9D070BD70B504460D46002610E073
:1027700040216548FFF7A3FE21786348FFF724FE58
:1027800000BF40216048FFF78DFE0028F9D0641C8F
:10279000761CAE42ECD370BD70B50025002400213C
:1027A0005AA0FFF7A8FF40F2DC50FDF74EFE0121D2
:1027B00057A0FFF7A0FF40F2DC50FDF746FE40F2C5
:1027C000DC50FDF742FE34E0012153A0FFF793FFF8
:1027D0004FF47A70FDF739FE641C0F2C14D90024D5
:1027E00000214AA0FFF787FF40F2DC50FDF72DFEE5
:1027F000012147A0FFF77FFF40F2DC50FDF725FEE7
:1028000040F2DC50FDF721FE4748008800F400400C
:1028100078B145480088C0F30D05681E4349085C3F
:10282000322803D100204049088003E000203E49BF
:102830000880C9E700BF4FF47A70FDF706FE01215A
:102840003BA0FFF758FF4FF47A70FDF7FEFD012122
:1028500041A0FFF750FF4FF47A70FDF7F6FD01211C
:1028600041A0FFF748FF4FF47A70FDF7EEFD00211D
:1028700040A0FFF740FF00202B49088070BD10B535
:1028800040F225512048FFF723FE002839D01E488A
:10289000FFF79EFDC4B22448008800F4004080BBCE
:1028A0002148008800F4804070B10A2C01D06E2CC1
:1028B00006D11D48008840F400401B49088020E0F4
:1028C0000020194908801CE00D2C01D05C2C06D199
:1028D0001548008840F480401349088011E01248F0
:1028E0000088C0F30D0011490C540F480088401CAB
:1028F0000D49088008460088B0F5806F01DB002094
:10290000088010BD00080140003801402B2B2B002F
:1029100041542B525354000041542B4349505354BB
:1029200041545553000000002C000020600000209E
:1029300041542B43495053544152543D2254435027
:10294000222C223131352E32392E3130392E313090
:1029500034222C363533340041542B4349504D4FEB
:1029600044453D310000000041542B43495053453C
:102970004E440000434F4E4E454354454400000032
:102980001FB501210846FEF77EFC4FF08040FEF7A0
:10299000D1FC2820ADF8080048F69F40ADF80400AF
:1029A0000020ADF80A00ADF8060001A94FF0804004
:1029B000FEF794FD01218807FFF7B2FB4FF4A060FA
:1029C000FDF79EFE1C208DF8000002208DF801000E
:1029D0008DF8020001208DF803006846FDF795FE92
:1029E000012211469007FFF7F0F801218807FFF751
:1029F000D1F80020774908801FBD024610780B7877
:102A0000984203D008781070012070470020FCE73E
:102A100010B501218807FFF797FB6F480068401C3D
:102A20006D490860084600684EF66021884202DD64
:102A300000206949086067480078401C65490870B3
:102A4000087800EBD0714910A0EB4101614A117088
:102A500061480068052190FBF1F201FB120060B9AA
:102A60005C484078401C5B494870487800EBD07166
:102A70004910A0EB4101574A51705748006819218D
:102A800090FBF1F201FB120060B952488078401CC3
:102A900050498870887800EBD0714910A0EB410153
:102AA0004C4A91704C480068322190FBF1F201FBD6
:102AB000120060B94748C078401C4649C870C878C1
:102AC00000EBD0714910A0EB4101424AD17042485D
:102AD0000068642190FBF1F201FB120060B93D48EF
:102AE0000079401C3B490871087900EBD07149100E
:102AF000A0EB4101374A117137480068FA2190FB79
:102B0000F1F201FB120060B932484079401C3149B2
:102B10004871487900EBD0714910A0EB41012D4A72
:102B200051712D4800684FF4FA7190FBF1F201FBEE
:102B3000120060B927488079401C2649887188793D
:102B400000EBD0714910A0EB4101224A917122485B
:102B5000006840F6B83190FBF1F201FB120060B959
:102B60001C48C079401C1B49C871C87900EBD07162
:102B70004910A0EB4101174AD1711748006843F68C
:102B8000982190FBF1F201FB120060B91148007A24
:102B9000401C10490872087A00EBD0714910A0EB74
:102BA00041010C4A11720C48006847F2305190FB09
:102BB000F1F201FB120060B90648407A401C054959
:102BC0004872487A00EBD0714910A0EB4101014AEC
:102BD000517210BD600400203000002000B585B0A7
:102BE00001210820FEF742FB4FF48050ADF81000A1
:102BF00001208DF8120010208DF8130004A9FB4865
:102C0000FEF774F800224FF48051F848FEF71FF9E0
:102C100001210820FEF72AFB4FF40050ADF8100008
:102C200001208DF8120010208DF8130004A9EF4840
:102C3000FEF75CF800224FF40051EC48FEF707F96C
:102C400001210820FEF712FB4FF48040ADF8100080
:102C500001208DF8120010208DF8130004A9E3481C
:102C6000FEF744F800224FF48041E048FEF7EFF809
:102C700001210820FEF7FAFA4FF40040ADF81000E9
:102C800001208DF8120010208DF8130004A9D748F8
:102C9000FEF72CF800224FF40041D448FEF7D7F895
:102CA00001210220FEF7EFFA4FF4FA60ADF80800B8
:102CB0002320ADF804000020ADF80A00ADF80600AE
:102CC00001A9CB48FEF70AFC0121C948FFF728FA01
:102CD00001221146C648FEF778FF4FF4A060FDF7C9
:102CE0000FFD1D208DF8000002208DF801008DF8E9
:102CF000020001208DF803006846FDF706FD05B0CF
:102D000000BD10B504463CB90020BA490870012145
:102D1000B748FEF73FFF0DE0012C07D10120B54970
:102D200008700121B248FEF735FF03E00021B048EA
:102D3000FEF730FF10BD10B50121AD48FFF704FAD2
:102D4000AD480078401CAC49087008460078082857
:102D500001DB00200870A748007800287ED1A64833
:102D60000078B8B901221103A048FEF770F80022DC
:102D70004FF400519D48FEF76AF800224FF480415D
:102D80009A48FEF764F800224FF400419748FEF796
:102D90005EF89FE198480078012816D101220103CE
:102DA0009248FEF754F8012251039048FEF74FF87D
:102DB00000224FF480418D48FEF749F800224FF47D
:102DC00000418A48FEF743F884E18B4800780228E6
:102DD00016D10022C1028548FEF739F801225103BD
:102DE0008248FEF734F800224FF480417F48FEF716
:102DF0002EF800224FF400417C48FEF728F869E1E4
:102E00007D480078032816D100224FF4805177487E
:102E1000FEF71DF8012251037448FEF718F801224D
:102E200091037248FEF713F800224FF400416F48F7
:102E3000FEF70DF84EE170480078042818D1002202
:102E400081026A48FEF703F800224FF400516748F8
:102E5000FDF7FDFF01229103644800E05AE0FDF711
:102E6000F6FF00224FF400416048FDF7F0FF31E12A
:102E700061480078052816D100224FF480515B4844
:102E8000FDF7E5FF00224FF400515848FDF7DFFF42
:102E9000012291035548FDF7DAFF0122D10353487F
:102EA000FDF7D5FF16E154480078062817D1002217
:102EB0004FF480514D48FDF7CAFF00224FF40051F6
:102EC0004A48FDF7C4FF00224FF480414748FDF710
:102ED000BEFF0122D1034548FDF7B9FFFAE046489D
:102EE000007807288BD1012211034048FDF7AFFF7E
:102EF00000224FF400513D48FDF7A9FF00224FF496
:102F000080413A48FDF7A3FF0122D1033748FDF77E
:102F10009EFFDFE038480078B8B90122D10333487A
:102F2000FDF795FF00224FF480413048FDF78FFFF9
:102F300000224FF400512D48FDF789FF00224FF485
:102F400080512A48FDF783FFC4E02B480078012810
:102F500016D10122C1032548FDF779FF0122910313
:102F60002248FDF774FF00224FF400511F48FDF77F
:102F70006EFF00224FF480511C48FDF768FFA9E066
:102F80001D480078022816D1002281031748FDF75A
:102F90005EFF012291031548FDF759FF00224FF40F
:102FA00000511248FDF753FF00224FF480510F48A3
:102FB000FDF74DFF8EE01048007803281ED1002257
:102FC0004FF400410948FDF742FF012291030748F1
:102FD000FDF73DFF012251030448FDF738FF0022B1
:102FE0004FF480510148FDF732FF73E0000C0140BF
:102FF00000040040350000203400002036480078EE
:10300000042816D1002241033448FDF720FF002296
:103010004FF480413148FDF71AFF012251032F4838
:10302000FDF715FF00224FF480512C48FDF70FFFEC
:1030300050E029480078052816D100224FF40041BD
:103040002648FDF704FF00224FF480412348FDF796
:10305000FEFE012251032148FDF7F9FE0122110372
:103060001E48FDF7F4FE35E01B480078062817D10E
:1030700000224FF400411948FDF7E9FE00224FF409
:1030800080411648FDF7E3FE00224FF4005113483B
:10309000FDF7DDFE012211031048FDF7D8FE19E00F
:1030A0000D480078072815D10122D1030B48FDF700
:1030B000CEFE00224FF480410848FDF7C8FE0022F2
:1030C0004FF400510548FDF7C2FE012211030348E9
:1030D000FDF7BDFE10BD000034000020000C0140D3
:1030E00008B50120ADF8000048208DF803006946BE
:1030F0006948FDF7FBFD08BD08B50120ADF80000EB
:1031000010208DF8030003208DF802006946624804
:10311000FDF7ECFD08BD10B5FFF7EEFF00205F499D
:1031200008601420FDF791F901205D49C1F8800184
:103130001E20FDF766F910BD10B50024FFF7D0FF83
:1031400004E0601CC4B20120FDF75BF953488038ED
:10315000006808B1642CF4DB642C01DB012010BD95
:10316000002404E0601CC4B20120FDF74AF94B487A
:103170008038006808B9642CF4DB642C01DB012082
:10318000EDE70020EBE710B5002404E0601CC4B2BA
:103190000120FDF736F941488038006808B1642CF9
:1031A000F4DB002404E0601CC4B20120FDF729F91F
:1031B0003A488038006808B9642CF4DB2820FDF711
:1031C00020F936488038006808B1012010BD002081
:1031D000FCE770B50024002506E06006040EFFF74A
:1031E000D2FF0443681CC5B2082DF6DB204670BD33
:1031F0007CB505460E46FFF78EFFFFF79DFF58BBD7
:10320000002405E0FFF7E5FF0DF80400601CC4B2E0
:10321000052CF7DB9DF800009DF8011008449DF88F
:10322000021008449DF8031008449DF804108842D9
:1032300014D19DF801009DF8001001EB810100EB15
:10324000410030809DF803009DF8021001EB8101E0
:1032500000EB4100288001E001207CBD0020FCE75C
:1032600008B501210820FEF701F80120ADF80000A3
:1032700010208DF8030003208DF8020069460648EF
:10328000FDF734FD01210448FDF7DDFDFFF743FFA5
:10329000FFF752FF08BD0000000C01408081214271
:1032A000008021420020FDF78EF9FDF791F8FFF72D
:1032B00053F9FFF76DF9FFF791FC4FF4E130FFF799
:1032C000CFF9FFF75DFBFFF7CBFF00224FF4005172
:1032D0007F48FDF7BCFDFFF75FFA012251037C48F0
:1032E000FDF7B5FDF2E07B497B48FFF781FF7B49A5
:1032F0007948B0F90000FCF72EFF7848007878494B
:10330000887076484078C87074488078087173482F
:10331000C078487171496F48B0F90000FCF71BFF95
:103320006E4800786E49C8716C48407808726B48E6
:10333000807848726948C078887201216948FDF731
:10334000A4FB00BF02216748FDF74CFC0028F9D020
:1033500014216448FDF705FCC0F58054204600F0B8
:10336000BCF90546604A614B00F048F9074600F099
:10337000C5F95F49088059495D480088FCF730FF6E
:10338000564800785649C8725448407808735348E4
:10339000807848735748007888B955480088B0F558
:1033A0002F7F06DD14205449086031204C49887372
:1033B00005E00020504908603020494988734F4992
:1033C0004F48FFF71AFB18B10F214548FFF7CBF91B
:1033D0004A494C48FFF711FB08B3474800684A497F
:1033E0000968401A002808DD47480068401C464923
:1033F00008600020FFF785FC11E03F480068424963
:103400000968401A08D540480068401E3E490860D7
:103410000120FFF776FC02E00220FFF772FC3B4838
:10342000008800F40040002850D038480088C0F3DD
:103430000D00374908803748007841280BD13548BE
:103440004078372807D1334880785A2803D10020A4
:10345000284908700EE02F48007841280AD12D48ED
:103460004078372806D12B488078532802D1012094
:10347000204908701F480078012824D12548007889
:1034800041280ED12348407837280AD12148807836
:103490004B2806D131201249887314201649086040
:1034A00011E01C48007841280DD11A48407837288F
:1034B00009D118488078472805D1302008498873F9
:1034C00000200D4908600020104908800BE700002B
:1034D000001001405A000020580000206A0400201B
:1034E0003800002000240140CDCCCCCCCCCC104006
:1034F000560000205C0000204C00002063040020E7
:103500005D00002054000020500000202C0000200E
:103510002E000020600000202DE9FE4F81EA030408
:1035200004F0004421F0004100944FF0000B23F020
:10353000004350EA01045ED052EA03045BD0C3F3B7
:103540000A54C1F30A552C44A4F2F3340194A0FBAD
:103550000254C1F3130141F48011C3F3130343F484
:10356000801301FB024400FB034E840A970A44EADD
:10357000815447EA8357A4FB076802958D0A05FB2F
:1035800007854FEA932C04FB0C542705029D4FEA54
:10359000065847EA1637B5EB08056EEB070C870EA1
:1035A000920E47EA811742EA8312A7FB0201B6EBAB
:1035B0000B0164EB00042B0D43EA0C335E1844EB63
:1035C0001C50DA465146E7FB0201C5F313044FEAEB
:1035D0000B3343EA14534FEA0432019C43EA0603D7
:1035E000A4F10C040294009CCDE900B400F0BEF8F4
:1035F00003B0BDE8F08F00200146F9E72DE9F04D5A
:1036000081EA030404F0004B21F0004514464FF01A
:10361000000A23F0004150EA050220D054EA0102DA
:103620001DD0C5F30A570246C5F31303C1F31300B7
:10363000C1F30A5640F4801543F48013A7EB060843
:10364000101BD64608F2FD3873EB050002D308F1D3
:10365000010801E092185B41B8F1000F03DA002085
:103660000146BDE8F08D00204FF4801106468446E7
:103670000EE0171B73EB050705D3121B63EB050365
:1036800006434CEA010C49084FEA300092185B41AE
:1036900050EA0107EDD152EA030012D082EA040099
:1036A00083EA0501084305D0101BAB4106D2012275
:1036B000002306E000224FF0004302E06FF0010219
:1036C00053101AEB06004CEB085110EB0A0041EBCB
:1036D0000B01BDE8F04D00F03AB80EB5C10F80EA1D
:1036E000E0700844CA07002140F233438DE80E0021
:1036F0000A460B4600F03AF803B000BDC1F30A5287
:1037000010B5C1F3130140F2FF3341F480119A4226
:1037100001DA002010BD40F233439A42A2F2334254
:1037200003DC524200F003F810BD904010BD202A87
:1037300004DB203A21FA02F00021704721FA02F35B
:10374000D040C2F12002914008431946704710B59D
:10375000141E73F1000408DA401C41F100019218B4
:103760005B411A4301D120F0010010BD2DE9F04D5D
:1037700092469B4611B1B1FA81F202E0B0FA80F2B2
:103780002032904600F052F804460F4640EA0A0004
:1037900041EA0B0153465A46084313D0114653EAF7
:1037A000010019D0C8F140025046FFF7C0FF05469E
:1037B0000E4650465946424600F038F8084305D0B8
:1037C000012004E020463946BDE8F08D0020054385
:1037D00046EAE0762C4337430A986305E40AA0EBF7
:1037E00008000022FD0A44EA47540A3002D50020AE
:1037F0000146E9E7010510196941DDE908450019AD
:103800006941BDE8F04DA2E7064C074D06E0E068CF
:1038100040F0010394E8070098471034AC42F6D317
:10382000FCF768FC6838000888380008202A04DBA8
:10383000203A00FA02F1002070479140C2F12003C3
:1038400020FA03F319439040704702E008C8121FA2
:1038500008C1002AFAD170477047002001E001C179
:10386000121F002AFBD17047883800080000002092
:10387000600000004A380008E838000860000020B6
:10388000180600005A3800080000000000A24A0490
:103890000000000000000000010203040607080900
:1038A00000000000010203040102030406070809E6
:1038B00002040608000000000000000000000000F4
:1038C0004137000000000000000000000000000080
:1038D00000000000000000000000000000000000E8
:0838E0000000000000000000E0
:04000005080000ED02
:00000001FF
